S00E00004341525F534D2E7372656341
S11300000C942A000C948B020C94B2020C94D90226
S11300100C9400030C9427030C944E030C94750366
S11300200C949C030C94C3030C94EA030C941104E5
S11300300C9438040C945F040C9486040C94AD0462
S11300400C94D4040C94FB040C9422050C944905E0
S11300500C94700511241FBECFE5D8E0DEBFCDBFE0
S113006010E0A0E6B0E0E0E4F6E102C005900D92F5
S1130070A638B107D9F710E0A6E8B0E001C01D9298
S1130080A73CB107E1F70E9497050C941E0B0C9452
S113009000000E94F8080E943B0908950E94440948
S11300A08BE990E00E944D0980919B0090919C0007
S11300B0A0919D00B0919E008F319105A105B105DD
S11300C028F483E06EE10E94FC08089581E06EE16B
S11300D00E94FC080895FC018281882321F08F3F4F
S11300E009F04AC027C08081813079F0813030F036
S11300F0823091F0833009F041C015C09AB38181F8
S1130100809589238ABB80E0089597B38181809587
S1130110892387BB80E0089594B3818180958923E6
S113012084BB80E0089591B381818095892381BB4C
S113013080E008958081813069F0813028F0823038
S113014079F08330E9F412C09AB38181892B8ABB98
S113015080E0089597B38181892B87BB80E008955F
S113016094B38181892B84BB80E0089591B381810C
S1130170892B81BB80E0089581E0089580E0089593
S113018080E00895442321F04F3F09F03FC021C08F
S1130190813069F0813028F0823079F08330C1F504
S11301A012C08BB3609568236BBB80E0089588B35D
S11301B06095682368BB80E0089585B360956823E3
S11301C065BB80E0089582B36095682362BB80E0DC
S11301D00895813061F0813028F0823069F08330F5
S11301E0C9F40FC08BB3682B6BBB80E0089588B350
S11301F0682B68BB80E0089585B3682B65BB80E0FD
S1130200089582B3682B62BB80E0089581E008956D
S113021080E0089580E00895FA01813059F081303A
S113022028F0823059F0833081F40CC089B36823FC
S113023060830BC086B36823608307C083B36823DD
S1130240608303C080B3682360838081882311F0B6
S113025081E080830895813061F0813028F082301C
S113026069F08330A9F40FC08BB368276BBB80E0BF
S1130270089588B3682768BB80E0089585B368272C
S113028065BB80E0089582B3682762BB80E008956F
S113029081E00895CF93DF93EC010E94620288818C
S11302A0813041F0813018F0823049F406C00E9458
S11302B07B0205C00E946F0202C00E94660289810F
S11302C0813051F0813018F0823089F40CC083E021
S11302D083BF81E089BF0BC085E090E09FBD8EBDE8
S11302E084E089BF04C087E085BD84E089BF80E0E5
S11302F0DF91CF910895FA01813049F0813018F0EF
S1130300823071F40AC083B7836083BF09C08EB59D
S11303109FB585609FBD8EBD03C085B5876085BDD3
S11303206130F9F0613018F06230B9F528C080917D
S11303308A0090918B00A0918C00B0918D00409127
S11303408600509187006091880070918900840F25
S1130350951FA61FB71F80839183A283B38380E078
S11303601DC080918A0090918B00A0918C00B09167
S11303708D0080839183A283B38380E00FC080913A
S1130380860090918700A0918800B09189008083B5
S11303909183A283B38380E001C081E040815181D5
S11303A062817381440F551F661F771F440F551FC9
S11303B0661F771F4083518362837383089542B716
S11303C02091960030E0922F8827821B930B840F94
S11303D0911DAA2797FDA095BA2F8093970090931B
S11303E09800A0939900B0939A001092960084B755
S11303F0829586958695837080FF30C080919700A2
S113040090919800A0919900B0919A0080939200E5
S113041090939300A0939400B093950080919200E0
S113042090919300A0919400B091950040918E001A
S113043050918F006091900070919100841B950BF6
S1130440A60BB70B8093860090938700A093880037
S1130450B093890084B78F7B84BF089580919700FF
S113046090919800A0919900B0919A0080938E0089
S113047090938F00A0939000B093910080918E0090
S113048090918F00A0919000B091910040919200C2
S1130490509193006091940070919500841B950B8A
S11304A0A60BB70B80938A0090938B00A0938C00CB
S11304B0B0938D0084B7806484BF089581E08093F5
S11304C0960008958FB780688FBF0895BA98C29A2E
S11304D08BB780628BBF84B7806484BF08958B9888
S11304E0939A8BB780688BBF85B7846085BF85B7C7
S11304F0877F85BF08958A98929A8BB780648BBF53
S113050085B7816085BF85B78D7F85BF08958FB717
S11305108F778FBF08951F920F920FB60F921124F9
S11305202F933F934F935F936F937F938F939F93F7
S1130530AF93BF93EF93FF93E091B700F091B800AE
S11305400995FF91EF91BF91AF919F918F917F9109
S11305506F915F914F913F912F910F900FBE0F902C
S11305601F9018951F920F920FB60F9211242F937C
S11305703F934F935F936F937F938F939F93AF9327
S1130580BF93EF93FF93E091BF00F091C0000995F2
S1130590FF91EF91BF91AF919F918F917F916F9157
S11305A05F914F913F912F910F900FBE0F901F902D
S11305B018951F920F920FB60F9211242F933F9309
S11305C04F935F936F937F938F939F93AF93BF9357
S11305D0EF93FF93E0917000F09171000995FF9102
S11305E0EF91BF91AF919F918F917F916F915F91A7
S11305F04F913F912F910F900FBE0F901F90189520
S11306001F920F920FB60F9211242F933F934F9383
S11306105F936F937F938F939F93AF93BF93EF9366
S1130620FF93E091C500F091C6000995FF91EF9109
S1130630BF91AF919F918F917F916F915F914F91F6
S11306403F912F910F900FBE0F901F9018951F92FE
S11306500F920FB60F9211242F933F934F935F93F2
S11306606F937F938F939F93AF93BF93EF93FF9376
S1130670E091A700F091A8000995FF91EF91BF9137
S1130680AF919F918F917F916F915F914F913F9126
S11306902F910F900FBE0F901F9018951F920F92DD
S11306A00FB60F9211242F933F934F935F936F9341
S11306B07F938F939F93AF93BF93EF93FF93E091B7
S11306C0C100F091C2000995FF91EF91BF91AF91E4
S11306D09F918F917F916F915F914F913F912F9156
S11306E00F900FBE0F901F9018951F920F920FB688
S11306F00F9211242F933F934F935F936F937F93A4
S11307008F939F93AF93BF93EF93FF93E091AD00CB
S1130710F091AE000995FF91EF91BF91AF919F9138
S11307208F917F916F915F914F913F912F910F9096
S11307300FBE0F901F9018951F920F920FB60F9235
S113074011242F933F934F935F936F937F938F93D2
S11307509F93AF93BF93EF93FF93E091AB00F0911E
S1130760AC000995FF91EF91BF91AF919F918F914B
S11307707F916F915F914F913F912F910F900FBE99
S11307800F901F9018951F920F920FB60F9211247D
S11307902F933F934F935F936F937F938F939F9385
S11307A0AF93BF93EF93FF93E091C300F091C40024
S11307B00995FF91EF91BF91AF919F918F917F9197
S11307C06F915F914F913F912F910F900FBE0F90BA
S11307D01F9018951F920F920FB60F9211242F930A
S11307E03F934F935F936F937F938F939F93AF93B5
S11307F0BF93EF93FF93E091BB00F091BC00099588
S1130800FF91EF91BF91AF919F918F917F916F91E4
S11308105F914F913F912F910F900FBE0F901F90BA
S113082018951F920F920FB60F9211242F933F9396
S11308304F935F936F937F938F939F93AF93BF93E4
S1130840EF93FF93E0916E00F0916F000995FF9193
S1130850EF91BF91AF919F918F917F916F915F9134
S11308604F913F912F910F900FBE0F901F901895AD
S11308701F920F920FB60F9211242F933F934F9311
S11308805F936F937F938F939F93AF93BF93EF93F4
S1130890FF93E091AF00F091B0000995FF91EF91C3
S11308A0BF91AF919F918F917F916F915F914F9184
S11308B03F912F910F900FBE0F901F9018951F928C
S11308C00F920FB60F9211242F933F934F935F9380
S11308D06F937F938F939F93AF93BF93EF93FF9304
S11308E0E091A500F091A6000995FF91EF91BF91C9
S11308F0AF919F918F917F916F915F914F913F91B4
S11309002F910F900FBE0F901F9018951F920F926A
S11309100FB60F9211242F933F934F935F936F93CE
S11309207F938F939F93AF93BF93EF93FF93E09144
S1130930BD00F091BE000995FF91EF91BF91AF9179
S11309409F918F917F916F915F914F913F912F91E3
S11309500F900FBE0F901F9018951F920F920FB615
S11309600F9211242F933F934F935F936F937F9331
S11309708F939F93AF93BF93EF93FF93E091B9004D
S1130980F091BA000995FF91EF91BF91AF919F91BA
S11309908F917F916F915F914F913F912F910F9024
S11309A00FBE0F901F9018951F920F920FB60F92C3
S11309B011242F933F934F935F936F937F938F9360
S11309C09F93AF93BF93EF93FF93E091B300F091A4
S11309D0B4000995FF91EF91BF91AF919F918F91D1
S11309E07F916F915F914F913F912F910F900FBE27
S11309F00F901F9018951F920F920FB60F9211240B
S1130A002F933F934F935F936F937F938F939F9312
S1130A10AF93BF93EF93FF93E091B500F091B600CD
S1130A200995FF91EF91BF91AF919F918F917F9124
S1130A306F915F914F913F912F910F900FBE0F9047
S1130A401F9018951F920F920FB60F9211242F9397
S1130A503F934F935F936F937F938F939F93AF9342
S1130A60BF93EF93FF93E091B100F091B200099529
S1130A70FF91EF91BF91AF919F918F917F916F9172
S1130A805F914F913F912F910F900FBE0F901F9048
S1130A9018951F920F920FB60F9211242F933F9324
S1130AA04F935F936F937F938F939F93AF93BF9372
S1130AB0EF93FF93E091A300F091A4000995FF91B7
S1130AC0EF91BF91AF919F918F917F916F915F91C2
S1130AD04F913F912F910F900FBE0F901F9018953B
S1130AE01F920F920FB60F9211242F933F934F939F
S1130AF05F936F937F938F939F93AF93BF93EF9382
S1130B00FF93E091A900F091AA000995FF91EF915C
S1130B10BF91AF919F918F917F916F915F914F9111
S1130B203F912F910F900FBE0F901F9018950E9428
S1130B3049000E944E00FDCF823079F08330C9F025
S1130B40813039F580939F0081E890E00E94E406AB
S1130B5088E790E00E946B00089582E080939F00F4
S1130B608FE790E00E94E40685E790E00E946B0026
S1130B70089583E080939F0081E890E00E94E4065A
S1130B808FE790E00E94E40682E790E00E946B0009
S1130B90089581E00895823079F1833009F455C0D5
S1130BA0813009F099C0613031F06130D0F06230A9
S1130BB009F094C00BC083E064E04FEF0E94C200D0
S1130BC083E068E040E00E94C200089583E068E0AA
S1130BD04FEF0E94C20083E064E040E00E94C20044
S1130BE0089583E064E040E00E94C20083E068E08E
S1130BF040E00E94C2000895613031F06130D0F0CD
S1130C00623009F06DC00BC083E060E84FEF0E94D2
S1130C10C20083E060E440E00E94C200089583E0E3
S1130C2060E44FEF0E94C20083E060E840E00E946D
S1130C30C200089583E060E440E00E94C20083E0C3
S1130C4060E840E00E94C2000895613031F06130F4
S1130C5070F1623009F046C015C083E064E04FEFE4
S1130C600E94C20083E068E040E00E94C20083E08A
S1130C7060E440E00E94C20083E060E84FEF0E941D
S1130C80C200089583E064E040E00E94C20083E073
S1130C9068E04FEF0E94C20083E060E44FEF0E94DF
S1130CA0C20083E060E840E00E94C200089583E04F
S1130CB064E040E00E94C20083E060E440E00E94FF
S1130CC0C20083E068E040E00E94C20083E060E884
S1130CD040E00E94C200089580E0089580E00895F5
S1130CE080E0089581E00895823069F08330A9F0AE
S1130CF08130F1F48093A0002EE130E040E050E038
S1130D000E940E07089582E08093A0002EE130E057
S1130D1040E050E00E940E07089583E08093A00015
S1130D2082E02EE130E040E050E00E940E0708959A
S1130D3081E00895823079F08330C1F0813011F57B
S1130D4080919F00813001F52EE130E040E050E0D9
S1130D500E940E07089580919F008230B9F42EE11D
S1130D6030E040E050E00E940E07089580919F001B
S1130D70833071F482E02EE130E040E050E00E94E4
S1130D800E07089581E0089581E0089581E00895B3
S1130D9081E00895813019F0823049F404C081E083
S1130DA00E94DF08089582E00E94DF08089581E030
S1130DB0089590919F00981721F481E0FB018083AE
S1130DC00895FB0110820895FC018081813061F057
S1130DD0813028F0823081F08330D9F415C083B794
S1130DE0886683BF80E016C08EB59FB58062916A25
S1130DF09FBD8EBD80E00EC08EB59FB58062916AA6
S1130E009FBD8EBD80E006C085B5886685BD80E047
S1130E1001C081E091819093A1000895CF92DF9267
S1130E20EF92FF920F931F9389019A010F2EFEEA0E
S1130E30CF2EF0EFDF2EFFEFEF2EFFEFFF2EF02D82
S1130E40C00ED11EE21EF31E9BE3C9169BE6D90613
S1130E5090E0E90690E0F90618F41092A100A2C00F
S1130E600F2EFBE2CF2EFCEFDF2EFFEFEF2EFFEF76
S1130E70FF2EF02DC00ED11EE21EF31E9DE7C916F3
S1130E809BE0D90690E0E90690E0F90620F491E0B1
S1130E909093A100A5C00F2EF5E1CF2EFEEFDF2E1B
S1130EA0FFEFEF2EFFEFFF2EF02DC00ED11EE21E3E
S1130EB0F31E9AEEC91691E0D90690E0E90690E097
S1130EC0F90620F492E09093A100A1C00F2EFAE05D
S1130ED0CF2EFFEFDF2EFFEFEF2EFFEFFF2EF02DD3
S1130EE0C00ED11EE21EF31E95EFC916D104E10413
S1130EF0F10420F493E09093A10090C00F2EF5E844
S1130F00CF2EFFEFDF2EFFEFEF2EFFEFFF2EF02DA2
S1130F10C00ED11EE21EF31E9BE7C916D104E104E4
S1130F20F10420F494E09093A100A5C00F2EF0EEFC
S1130F30CF2EFFEFDF2EFFEFEF2EFFEFFF2EF02D72
S1130F40C00ED11EE21EF31E9BE5C916D104E104B6
S1130F50F10420F495E09093A10077C00150104073
S1130F60204030400F3111052105310520F496E071
S1130F709093A10086C09091A100933009F44EC0D3
S1130F80943030F4913061F1923008F040C00AC0DE
S1130F90953009F45AC0953008F46DC0963009F0C4
S1130FA08DC06FC0813061F0813030F0823071F0DB
S1130FB0833009F083C010C083B7816083BF88C0C9
S1130FC08EB59FB581609FBD8EBD98C08EB59FB50F
S1130FD081609FBD8EBDADC085B5816085BDC4C037
S1130FE0833018F4813048F404C0833009F066C0BB
S1130FF00AC083B7826083BF6BC02EB53FB5226041
S11310003FBD2EBD5BC085B5826085BDADC083305C
S113101009F054C085B5836085BDA6C0833018F43B
S1131020813048F404C0833009F048C00AC083B753
S1131030836083BF4DC02EB53FB523603FBD2EBD39
S11310403DC085B5846085BD8FC0833018F4813080
S113105040F403C0833091F50AC083B7836083BF33
S113106037C02EB53FB523603FBD2EBD27C085B523
S1131070846085BD79C0833009F585B5856085BDFB
S113108073C0813059F0813028F0823069F08330A8
S1131090A9F410C083B7856083BF1AC08EB59FB50D
S11310A081609FBD8EBD2AC08EB59FB585609FBDF2
S11310B08EBD3FC085B5876085BD56C08130F1F0D7
S11310C0813030F08230A9F1833009F063C04CC024
S11310D070E080E090E00E940B0A20E030E048ECF1
S11310E052E40E94770920E030E04FE753E40E9485
S11310F0990A0E94DF096CBF80E04DC070E080E077
S113110090E00E940B0A20E030E048EC52E40E9498
S1131110770920E030E04FE753E40E94990A0E94E7
S1131120DF09DC01CB019BBD8ABD99BD88BD80E090
S113113032C070E080E090E00E940B0A20E030E0D2
S113114048EC52E40E94770920E030E04FE753E492
S11311500E94990A0E94DF09DC01CB019BBD8ABD74
S113116099BD88BD80E017C070E080E090E00E94E7
S11311700B0A20E030E048EC52E40E94770920E0BA
S113118030E04FE753E40E94990A0E94DF0963BDEF
S113119080E001C081E091E09093A2001F910F9143
S11311A0FF90EF90DF90CF9008959091A20091303E
S11311B021F40E940E0780E0089581E008958330B1
S11311C018F4813048F403C0833081F40AC083B733
S11311D0887F83BF80E0089583B7887F83BF80E0E2
S11311E0089585B5887F85BD80E0089581E00895E0
S11311F083E00E949C050895CF93C62F823099F016
S1131200833018F48130A1F505C0833019F184309E
S113121079F512C083E061E00E94CB0583E06C2F76
S11312200E94740626C083E062E00E94CB0583E03E
S11312306C2F0E9474061DC083E061E00E94CB0500
S11312406C2F6A5081E00E94740682E06C2F0E9429
S113125074060FC083E061E00E94CB0581E06C2F2F
S11312600E9474066C2F6A5082E00E94740601C0CA
S113127080E0CF91089583E890E00E946B008CE6B3
S113128090E00E944A01089582E090E060E170E0FD
S11312904FEF50E00E94C2000895EF92FF921F9317
S11312A0CF93DF9300D000D0CDB7DEB77C0182E0CE
S11312B061E0AE014F5F5F4F0E947B01182F69818F
S11312C07A818B819C812AE330E040E050E00E94E7
S11312D0FC0AF70131832083812F0F900F900F9028
S11312E00F90DF91CF911F91FF90EF9008950CD054
S11312F0E6C0DED040F0D5D030F021F45F3F19F0E5
S1131300C7C0511110C1CAC0EBD098F39923C9F3D7
S11313105523B1F3951B550BBB27AA2762177307F7
S1131320840738F09F5F5F4F220F331F441FAA1FAB
S1131330A9F333D00E2E3AF0E0E830D0915050406B
S1131340E695001CCAF729D0FE2F27D0660F771F19
S1131350881FBB1F261737074807AB07B0E809F0FB
S1131360BB0B802DBF01FF2793585F4F2AF09E3F90
S1131370510568F08DC0D7C05F3FECF3983EDCF3B5
S1131380869577956795B795F7959F5FC9F7880F09
S1131390911D9695879597F90895E1E0660F771F5B
S11313A0881FBB1F621773078407BA0720F0621BEC
S11313B0730B840BBA0BEE1F88F7E095089598D051
S11313C088F09F5790F0B92F9927B751A0F0D1F02A
S11313D0660F771F881F991F1AF0BA95C9F712C0B4
S11313E0B13081F09FD0B1E008959CC0672F782F71
S11313F08827B85F39F0B93FCCF386957795679520
S1131400B395D9F73EF490958095709561957F4F8B
S11314108F4F9F4F0895E89409C097FB3EF4909531
S11314208095709561957F4F8F4F9F4F9923A9F0B9
S1131430F92F96E9BB279395F69587957795679548
S1131440B795F111F8CFFAF4BB0F11F460FF1BC08C
S11314506F5F7F4F8F4F9F4F16C0882311F096E91F
S113146011C0772321F09EE8872F762F05C06623CD
S113147071F096E8862F70E060E02AF09A95660F86
S1131480771F881FDAF7880F9695879597F908953F
S113149097F99F6780E870E060E008959FEF80EC23
S11314A0089500240A9416161706180609060895C6
S11314B000240A9412161306140605060895092E2C
S11314C00394000C11F4882352F0BB0F40F4BF2B9B
S11314D011F460FF04C06F5F7F4F8F4F9F4F0895DB
S11314E057FD9058440F551F59F05F3F71F04795D1
S11314F0880F97FB991F61F09F3F79F087950895B6
S1131500121613061406551FF2CF4695F1DF08C0D4
S1131510161617061806991FF1CF869571056105F1
S113152008940895E894BB2766277727CB0197F999
S113153008950BD0C4CFB5DF28F0BADF18F0952397
S113154009F0A6CFABCF1124EECFCADFA0F3959F4D
S1131550D1F3950F50E0551F629FF001729FBB2796
S1131560F00DB11D639FAA27F00DB11DAA1F649F42
S11315706627B00DA11D661F829F2227B00DA11DF5
S1131580621F739FB00DA11D621F839FA00D611D7B
S1131590221F749F3327A00D611D231F849F600D9C
S11315A0211D822F762F6A2F11249F5750408AF0D5
S11315B0E1F088234AF0EE0FFF1FBB1F661F771F61
S11315C0881F91505040A9F79E3F510570F060CF9D
S11315D0AACF5F3FECF3983EDCF386957795679549
S11315E0B795F795E7959F5FC1F7FE2B880F911D7F
S11315F09695879597F90895A1E21A2EAA1BBB1B0D
S1131600FD010DC0AA1FBB1FEE1FFF1FA217B307CA
S1131610E407F50720F0A21BB30BE40BF50B661FE0
S1131620771F881F991F1A9469F7609570958095A4
S113163090959B01AC01BD01CF010895F894FFCFB3
S1131640031CFF02F0FF01F0FF00F0FF02005E0246
S1131650DF0103FCFF03E0FF031CFF030600060297
S10916600601060210FF62
S9030000FC
