:100000000C942A000C9481020C94A8020C94CF0248
:100010000C94F6020C941D030C9444030C946B0393
:100020000C9492030C94B9030C94E0030C94070411
:100030000C942E040C9455040C947C040C94A3048E
:100040000C94CA040C94F1040C9418050C943F050C
:100050000C94660511241FBECFE5D8E0DEBFCDBFEE
:1000600010E0A0E6B0E0EAEBFBE102C005900D92E3
:10007000AE38B107D9F710E0AEE8B0E001C01D928C
:10008000A43DB107E1F70E948D050C94DB0D0C94A3
:1000900000000E94EE080E94F90B08950E94020CD5
:1000A00083EA90E00E94190C8091A3009091A40033
:1000B0008F31910528F483E06EE10E94F2080895E3
:1000C00081E06EE10E94F2080895FC01828188239C
:1000D00021F08F3F09F04AC027C08081813079F03C
:1000E000813030F0823091F0833009F041C015C08A
:1000F0009AB38181809589238ABB80E0089597B364
:1001000081818095892387BB80E0089594B38181A4
:100110008095892384BB80E0089591B38181809587
:10012000892381BB80E008958081813069F081302E
:1001300028F0823079F08330E9F412C09AB38181DB
:10014000892B8ABB80E0089597B38181892B87BB77
:1001500080E0089594B38181892B84BB80E0089569
:1001600091B38181892B81BB80E0089581E008955E
:1001700080E0089580E00895442321F04F3F09F086
:100180003FC021C0813069F0813028F0823079F0A1
:100190008330C1F512C08BB3609568236BBB80E0E0
:1001A000089588B36095682368BB80E0089585B39F
:1001B0006095682365BB80E0089582B360956823ED
:1001C00062BB80E00895813061F0813028F0823098
:1001D00069F08330C9F40FC08BB3682B6BBB80E030
:1001E000089588B3682B68BB80E0089585B3682BB9
:1001F00065BB80E0089582B3682B62BB80E0089500
:1002000081E0089580E0089580E00895FA0181304A
:1002100059F0813028F0823059F0833081F40CC0DD
:1002200089B3682360830BC086B36823608307C0EB
:1002300083B36823608303C080B3682360838081B5
:10024000882311F081E080830895813061F081304E
:1002500028F0823069F08330A9F40FC08BB368278F
:100260006BBB80E0089588B3682768BB80E0089581
:1002700085B3682765BB80E0089582B3682762BBB9
:1002800080E0089581E00895CF93DF93EC010E9410
:1002900058028881813041F0813018F0823049F471
:1002A00006C00E94710205C00E94650202C00E9441
:1002B0005C028981813051F0813018F0823089F4FC
:1002C0000CC085E083BF81E089BF0BC085E090E072
:1002D0009FBD8EBD84E089BF04C087E085BD84E0FA
:1002E00089BF80E0DF91CF9108950F931F938130F4
:1002F00049F0813018F0823071F40AC083B783600E
:1003000083BF09C08EB59FB585609FBD8EBD03C0FC
:1003100085B5876085BD613001F1613018F06230CC
:10032000D1F52AC08091920090919300A091940001
:10033000B091950000918E0010918F002091900057
:1003400030919100800F911FA21FB31FFA0180838B
:100350009183A283B38380E01FC08091920090912B
:100360009300A0919400B0919500FA01808391834D
:10037000A283B38380E010C080918E0090918F00A3
:10038000A0919000B0919100FA0180839183A283A3
:10039000B38380E001C081E01F910F910895CF9356
:1003A000C2B760919E0070E080E090E02FEF30E0F7
:1003B00040E050E00E94BC0DDC01CB018C0F911D90
:1003C000A11DB11D80939F009093A000A093A10058
:1003D000B093A20010929E0084B782958695869570
:1003E000837080FF30C080919F009091A000A09109
:1003F000A100B091A20080939A0090939B00A093DB
:100400009C00B0939D0080919A0090919B00A091D8
:100410009C00B0919D004091960050919700609192
:10042000980070919900841B950BA60BB70B8093D5
:100430008E0090938F00A0939000B093910084B7AA
:100440008F7B84BF2FC080919F009091A000A091CE
:10045000A100B091A2008093960090939700A09382
:100460009800B09399008091960090919700A09188
:100470009800B091990040919A0050919B00609132
:100480009C0070919D00841B950BA60BB70B80936D
:10049000920090939300A0939400B093950084B73A
:1004A000806484BFCF91089581E080939E00089579
:1004B0008FB780688FBF0895BA98C29A8BB7806251
:1004C0008BBF84B7806484BF08958B98939A8BB751
:1004D00080688BBF85B7846085BF85B7877F85BF00
:1004E00008958A98929A8BB780648BBF85B7816094
:1004F00085BF85B78D7F85BF08958FB78F778FBFF5
:1005000008951F920F920FB60F9211242F933F93CD
:100510004F935F936F937F938F939F93AF93BF930B
:10052000EF93FF93E091C400F091C5000995FF910E
:10053000EF91BF91AF919F918F917F916F915F915B
:100540004F913F912F910F900FBE0F901F901895D4
:100550001F920F920FB60F9211242F933F934F9338
:100560005F936F937F938F939F93AF93BF93EF931B
:10057000FF93E091CC00F091CD000995FF91EF91B0
:10058000BF91AF919F918F917F916F915F914F91AB
:100590003F912F910F900FBE0F901F9018951F92B3
:1005A0000F920FB60F9211242F933F934F935F93A7
:1005B0006F937F938F939F93AF93BF93EF93FF932B
:1005C000E0917000F09171000995FF91EF91BF915A
:1005D000AF919F918F917F916F915F914F913F91DB
:1005E0002F910F900FBE0F901F9018951F920F9292
:1005F0000FB60F9211242F933F934F935F936F93F6
:100600007F938F939F93AF93BF93EF93FF93E0916B
:10061000D200F091D3000995FF91EF91BF91AF9176
:100620009F918F917F916F915F914F913F912F910A
:100630000F900FBE0F901F9018951F920F920FB63C
:100640000F9211242F933F934F935F936F937F9358
:100650008F939F93AF93BF93EF93FF93E091B40079
:10066000F091B5000995FF91EF91BF91AF919F91E6
:100670008F917F916F915F914F913F912F910F904B
:100680000FBE0F901F9018951F920F920FB60F92EA
:1006900011242F933F934F935F936F937F938F9387
:1006A0009F93AF93BF93EF93FF93E091CE00F091B0
:1006B000CF000995FF91EF91BF91AF919F918F91DD
:1006C0007F916F915F914F913F912F910F900FBE4E
:1006D0000F901F9018951F920F920FB60F92112432
:1006E0002F933F934F935F936F937F938F939F933A
:1006F000AF93BF93EF93FF93E091BA00F091BB00EB
:100700000995FF91EF91BF91AF919F918F917F914B
:100710006F915F914F913F912F910F900FBE0F906E
:100720001F9018951F920F920FB60F9211242F93BE
:100730003F934F935F936F937F938F939F93AF9369
:10074000BF93EF93FF93E091B800F091B900099542
:10075000FF91EF91BF91AF919F918F917F916F9199
:100760005F914F913F912F910F900FBE0F901F906F
:1007700018951F920F920FB60F9211242F933F934B
:100780004F935F936F937F938F939F93AF93BF9399
:10079000EF93FF93E091D000F091D1000995FF9184
:1007A000EF91BF91AF919F918F917F916F915F91E9
:1007B0004F913F912F910F900FBE0F901F90189562
:1007C0001F920F920FB60F9211242F933F934F93C6
:1007D0005F936F937F938F939F93AF93BF93EF93A9
:1007E000FF93E091C800F091C9000995FF91EF9146
:1007F000BF91AF919F918F917F916F915F914F9139
:100800003F912F910F900FBE0F901F9018951F9240
:100810000F920FB60F9211242F933F934F935F9334
:100820006F937F938F939F93AF93BF93EF93FF93B8
:10083000E0916E00F0916F000995FF91EF91BF91EB
:10084000AF919F918F917F916F915F914F913F9168
:100850002F910F900FBE0F901F9018951F920F921F
:100860000FB60F9211242F933F934F935F936F9383
:100870007F938F939F93AF93BF93EF93FF93E091F9
:10088000BC00F091BD000995FF91EF91BF91AF9130
:100890009F918F917F916F915F914F913F912F9198
:1008A0000F900FBE0F901F9018951F920F920FB6CA
:1008B0000F9211242F933F934F935F936F937F93E6
:1008C0008F939F93AF93BF93EF93FF93E091B20009
:1008D000F091B3000995FF91EF91BF91AF919F9176
:1008E0008F917F916F915F914F913F912F910F90D9
:1008F0000FBE0F901F9018951F920F920FB60F9278
:1009000011242F933F934F935F936F937F938F9314
:100910009F93AF93BF93EF93FF93E091CA00F09141
:10092000CB000995FF91EF91BF91AF919F918F916E
:100930007F916F915F914F913F912F910F900FBEDB
:100940000F901F9018951F920F920FB60F921124BF
:100950002F933F934F935F936F937F938F939F93C7
:10096000AF93BF93EF93FF93E091C600F091C70060
:100970000995FF91EF91BF91AF919F918F917F91D9
:100980006F915F914F913F912F910F900FBE0F90FC
:100990001F9018951F920F920FB60F9211242F934C
:1009A0003F934F935F936F937F938F939F93AF93F7
:1009B000BF93EF93FF93E091C000F091C1000995C0
:1009C000FF91EF91BF91AF919F918F917F916F9127
:1009D0005F914F913F912F910F900FBE0F901F90FD
:1009E00018951F920F920FB60F9211242F933F93D9
:1009F0004F935F936F937F938F939F93AF93BF9327
:100A0000EF93FF93E091C200F091C3000995FF912D
:100A1000EF91BF91AF919F918F917F916F915F9176
:100A20004F913F912F910F900FBE0F901F901895EF
:100A30001F920F920FB60F9211242F933F934F9353
:100A40005F936F937F938F939F93AF93BF93EF9336
:100A5000FF93E091BE00F091BF000995FF91EF91E7
:100A6000BF91AF919F918F917F916F915F914F91C6
:100A70003F912F910F900FBE0F901F9018951F92CE
:100A80000F920FB60F9211242F933F934F935F93C2
:100A90006F937F938F939F93AF93BF93EF93FF9346
:100AA000E091B000F091B1000995FF91EF91BF91F5
:100AB000AF919F918F917F916F915F914F913F91F6
:100AC0002F910F900FBE0F901F9018951F920F92AD
:100AD0000FB60F9211242F933F934F935F936F9311
:100AE0007F938F939F93AF93BF93EF93FF93E09187
:100AF000B600F091B7000995FF91EF91BF91AF91CA
:100B00009F918F917F916F915F914F913F912F9125
:100B10000F900FBE0F901F9018950E9449000E94E1
:100B20004E00FDCF823079F08330C9F0813039F545
:100B30008093A50081E890E00E94DA0688E790E0C3
:100B40000E946500089582E08093A5008FE790E001
:100B50000E94DA0685E790E00E946500089583E030
:100B60008093A50081E890E00E94DA068FE790E08C
:100B70000E94DA0682E790E00E946500089581E015
:100B80000895823079F1833009F455C0813009F03D
:100B900099C0613031F06130D0F0623009F094C01A
:100BA0000BC083E064E04FEF0E94BC0083E068E08C
:100BB00040E00E94BC00089583E068E04FEF0E948F
:100BC000BC0083E064E040E00E94BC00089583E044
:100BD00064E040E00E94BC0083E068E040E00E94E6
:100BE000BC000895613031F06130D0F0623009F01E
:100BF0006DC00BC083E060E84FEF0E94BC0083E053
:100C000060E440E00E94BC00089583E060E44FEFA0
:100C10000E94BC0083E060E840E00E94BC000895B0
:100C200083E060E440E00E94BC0083E060E840E0D4
:100C30000E94BC000895613031F0613070F1623083
:100C400009F046C015C083E064E04FEF0E94BC008D
:100C500083E068E040E00E94BC0083E060E440E0A4
:100C60000E94BC0083E060E84FEF0E94BC00089542
:100C700083E064E040E00E94BC0083E068E04FEF66
:100C80000E94BC0083E060E44FEF0E94BC0083E060
:100C900060E840E00E94BC00089583E064E040E02A
:100CA0000E94BC0083E060E440E00E94BC0083E05E
:100CB00068E040E00E94BC0083E060E840E00E9401
:100CC000BC00089580E0089580E0089580E00895D4
:100CD00081E00895823069F08330A9F08130F1F429
:100CE0008093A6002EE130E040E050E00E9404072F
:100CF000089582E08093A6002EE130E040E050E0CD
:100D00000E940407089583E08093A60082E02EE10C
:100D100030E040E050E00E940407089581E008952B
:100D2000823079F08330C1F0813011F58091A500D7
:100D3000813001F52EE130E040E050E00E940407F0
:100D400008958091A5008230B9F42EE130E040E0B2
:100D500050E00E94040708958091A500833071F44B
:100D600082E02EE130E040E050E00E940407089568
:100D700081E0089581E0089581E0089581E008957B
:100D8000813019F0823049F404C081E00E94D50816
:100D9000089582E00E94D508089581E00895909119
:100DA000A500981721F481E0FB0180830895FB01E1
:100DB00010820895FC018081813061F0813028F03B
:100DC000823081F08330D9F415C083B7886683BF41
:100DD00080E016C08EB59FB58062916A9FBD8EBDC2
:100DE00080E00EC08EB59FB58062916A9FBD8EBDBA
:100DF00080E006C085B5886685BD80E001C081E0E1
:100E000091819093A7000895CF92DF92EF92FF9285
:100E10000F931F9389019A010F2EFEEACF2EF0EF58
:100E2000DF2EFFEFEF2EFFEFFF2EF02DC00ED11EB5
:100E3000E21EF31E9BE3C9169BE6D90690E0E90685
:100E400090E0F90618F41092A700A2C00F2EFBE262
:100E5000CF2EFCEFDF2EFFEFEF2EFFEFFF2EF02D5A
:100E6000C00ED11EE21EF31E9DE7C9169BE0D906F7
:100E700090E0E90690E0F90620F491E09093A70055
:100E8000A5C00F2EF5E1CF2EFEEFDF2EFFEFEF2EE8
:100E9000FFEFFF2EF02DC00ED11EE21EF31E9AEEC4
:100EA000C91691E0D90690E0E90690E0F90620F431
:100EB00092E09093A700A1C00F2EFAE0CF2EFFEF93
:100EC000DF2EFFEFEF2EFFEFFF2EF02DC00ED11E15
:100ED000E21EF31E95EFC916D104E104F10420F4DB
:100EE00093E09093A70090C00F2EF5E8CF2EFFEF70
:100EF000DF2EFFEFEF2EFFEFFF2EF02DC00ED11EE5
:100F0000E21EF31E9BE7C916D104E104F10420F4AC
:100F100094E09093A700A5C00F2EF0EECF2EFFEF28
:100F2000DF2EFFEFEF2EFFEFFF2EF02DC00ED11EB4
:100F3000E21EF31E9BE5C916D104E104F10420F47E
:100F400095E09093A70077C00150104020403040BA
:100F50000F3111052105310520F496E09093A7008B
:100F600086C09091A700933009F44EC0943030F4BD
:100F7000913061F1923008F040C00AC0953009F418
:100F80005AC0953008F46DC0963009F08DC06FC01E
:100F9000813061F0813030F0823071F0833009F0BF
:100FA00083C010C083B7816083BF88C08EB59FB5F2
:100FB00081609FBD8EBD98C08EB59FB581609FBD7D
:100FC0008EBDADC085B5816085BDC4C0833018F4C9
:100FD000813048F404C0833009F066C00AC083B78A
:100FE000826083BF6BC02EB53FB522603FBD2EBD72
:100FF0005BC085B5826085BDADC0833009F054C04B
:1010000085B5836085BDA6C0833018F4813048F46F
:1010100004C0833009F048C00AC083B7836083BF2F
:101020004DC02EB53FB523603FBD2EBD3DC085B53B
:10103000846085BD8FC0833018F4813040F403C0D4
:10104000833091F50AC083B7836083BF37C02EB564
:101050003FB523603FBD2EBD27C085B5846085BDEB
:1010600079C0833009F585B5856085BD73C0813051
:1010700059F0813028F0823069F08330A9F410C033
:1010800083B7856083BF1AC08EB59FB581609FBD51
:101090008EBD2AC08EB59FB585609FBD8EBD3FC0F9
:1010A00085B5876085BD56C08130F1F0813030F064
:1010B0008230A9F1833009F063C04CC070E080E059
:1010C00090E00E94CB0C20E030E048EC52E40E941B
:1010D000370C20E030E04FE753E40E94590D0E94A6
:1010E0009F0C6CBF80E04DC070E080E090E00E94FB
:1010F000CB0C20E030E048EC52E40E94370C20E0BA
:1011000030E04FE753E40E94590D0E949F0CDC0130
:10111000CB019BBD8ABD99BD88BD80E032C070E027
:1011200080E090E00E94CB0C20E030E048EC52E4FC
:101130000E94370C20E030E04FE753E40E94590D45
:101140000E949F0CDC01CB019BBD8ABD99BD88BD6F
:1011500080E017C070E080E090E00E94CB0C20E0BF
:1011600030E048EC52E40E94370C20E030E04FE7DA
:1011700053E40E94590D0E949F0C63BD80E001C0A2
:1011800081E091E09093A8001F910F91FF90EF9064
:10119000DF90CF9008959091A800913021F40E94A3
:1011A000040780E0089581E00895833018F48130C9
:1011B00048F403C0833081F40AC083B7887F83BFBB
:1011C00080E0089583B7887F83BF80E0089585B568
:1011D000887F85BD80E0089581E0089583E00E94C6
:1011E00092050895CF93C62F8230A9F0833020F462
:1011F000813009F049C006C0833059F1843009F0CC
:1012000043C012C083E061E00E94C10583E06C2FFF
:101210000E946A063AC083E062E00E94C10583E052
:101220006C2F0E946A0631C081E061E00E94C10516
:1012300082E062E00E94C10583E06C2F0E946A0692
:1012400081E060E00E94C10582E060E00E94C1058B
:101250001CC081E062E00E94C10582E061E00E9462
:10126000C10583E06C2F0E946A060E94930A8AE0FF
:1012700090E00E94EE0A81E060E00E94C10582E0F9
:1012800060E00E94C10501C080E0CF91089582BF57
:10129000089582B7089583B7887F83BF93B78091FD
:1012A000AF00892B83BF089583B7887F83BF0895DC
:1012B000EF920F93442319F40E94540948C093B746
:1012C000892B842B83BF4093AF0022BF603171F024
:1012D000613118F4662331F014C0603259F0603384
:1012E00081F40CC083B78F7C83BF0BC083B7806150
:1012F00083BF07C083B7806283BF03C083B78063A7
:1013000083BF0CBF81E0E81669F0E81620F082E0A8
:10131000E816E9F410C01092AE000E947D0289B771
:1013200019BE15C081E08093AE000E94580289B7B3
:10133000816089BF0CC081E08093AE008FB7806868
:101340008FBF89B7816089BF89B7826089BF0F91DC
:10135000EF900895AC0160E070E041155105610522
:10136000710589F080E090E0DC0108B600FEFDCF59
:1013700028B7216028BF0196A11DB11D84179507CC
:10138000A607B70790F30895DC01CB010097A105EC
:10139000B10531F080EF0E9447090E944909FDCF55
:1013A00088B7816088BF0895CF92DF92EF92FF9255
:1013B000CF93C82F8FEF8093AA006091AA0070E0AE
:1013C00080E090E00E94CB0C6B017C016C2F70E000
:1013D00080E090E00E94CB0C20E030E048EC52E44A
:1013E0000E94370C9B01AC01C701B6010E94590D48
:1013F0000E949F0C6093AA008091AE00882319F090
:10140000813029F51FC00E944B098091AA000E94DB
:10141000470908B600FEFDCF88B7816088BF85B355
:101420008FEF85BB0E944B098091AA0080950E9496
:10143000470908B600FEFDCF88B7816088BF85B335
:1014400015BA05C00E944B098091AA008CBFCF91AC
:10145000FF90EF90DF90CF90089582B3809582BB8C
:101460000895AF92EF92FF920F931F93D9012A2D07
:10147000EEB5FFB590E0862B972B8E2B9F2B9FBD53
:101480008EBD4093AB001BBD0ABDF9BCE8BCBDBD21
:10149000ACBD2830D1F0293028F4AA2051F02430F6
:1014A000F9F40BC02032A9F02C33B9F02031C1F48B
:1014B00008C089B7837C89BF13C089B7846089BF9E
:1014C0000FC089B7806189BF0BC089B7886089BFA9
:1014D00007C089B7806289BF03C089B78C6389BFA1
:1014E0001F910F91FF90EF90AF9008959DBD8CBD1F
:1014F00008958CB59DB508952EB53FB58091AB008C
:1015000090E0822B932B9FBD8EBD08958EB59FB525
:10151000887F9FBD8EBD089508950895089584BD68
:10152000089584B5089585B5887F85BD95B580916A
:10153000AC00892B85BD089585B5887F85BD08954C
:10154000CF920F93442319F40E949C0A44C095B58E
:10155000892B842B85BD4093AC0024BD603171F094
:10156000613118F4662331F014C0603259F06033F1
:1015700081F40CC085B58F7C85BD0BC085B58061BD
:1015800085BD07C085B5806285BD03C085B5806314
:1015900085BD03BD80E4C81651F080E8C81681F00F
:1015A000CC20C9F41092AD0089B719BE14C081E0F7
:1015B0008093AD000E94580289B7806489BF0BC038
:1015C00081E08093AD000E94580289B7806489BF92
:1015D00089B7806889BF0F91CF9008950F931F93AB
:1015E000CF93DF9300D000D0CDB7DEB78C011A8245
:1015F00019821B821C828091AC008430F9F0853006
:1016000038F4823089F08330A0F4813051F507C07E
:101610008630F1F08630B8F0873019F51EC08AE3C5
:101620008B838AE08C831DC088E08B838CE08C8365
:1016300018C082E08B8388E08C8313C081E08B83A9
:1016400086E08C830EC081E08B8383E88C8309C0A5
:1016500081E08B8382EC8C8304C081E08B8380EFFC
:101660008C831A8219822B8149815A8130E0029F32
:10167000C001039F900D129F900D11244817590728
:10168000E0F48C810E948F0A08B606FEFDCF88B771
:10169000806488BF89819A8101969A8389832B818E
:1016A00049815A8130E0029FC001039F900D129F33
:1016B000900D11244817590720F30F900F900F90A9
:1016C0000F90DF91CF911F910F910895CF92DF92EC
:1016D000EF92FF92CF93DF9300D0CDB7DEB76B01CF
:1016E0007C011A8219821A82198289819A81A0E06A
:1016F000B0E08C159D05AE05BF05B8F48EEF0E94D5
:101700008F0A08B606FEFDCF88B7806488BF89813E
:101710009A8101969A83898389819A81A0E0B0E0B9
:101720008C159D05AE05BF0548F30F900F90DF9116
:10173000CF91FF90EF90DF90CF900895CF92DF92FE
:10174000EF92FF92CF93C82F8FEF8093AA00609102
:10175000AA0070E080E090E00E94CB0C6B017C015D
:101760006C2F70E080E090E00E94CB0C20E030E035
:1017700048EC52E40E94370C9B01AC01C701B60152
:101780000E94590D0E949F0C6093AA008091AD00A9
:10179000882319F0813029F51FC00E94930A809197
:1017A000AA000E948F0A08B602FEFDCF88B78460A7
:1017B00088BF85B38FEF85BB0E94930A8091AA00F2
:1017C00080950E948F0A08B602FEFDCF88B784601C
:1017D00088BF85B315BA05C00E94930A8091AA00FC
:1017E00083BDCF91FF90EF90DF90CF900895089543
:1017F00008958AE890E00E9465008CE690E00E94DF
:101800004401089582E090E060E170E04FEF50E025
:101810000E94BC000E94930A81E090E00E94EE0AC0
:1018200082E090E060E170E040E050E00E94BC00A7
:1018300008950F931F93CF93DF9300D000D0CDB7BF
:10184000DEB78C0182E061E0AE014F5F5F4F0E9426
:10185000750129813A81F801318320830F900F901F
:101860000F900F90DF91CF911F910F9108950CD0A1
:10187000E6C0DED040F0D5D030F021F45F3F19F063
:10188000C7C0511110C1CAC0EBD098F39923C9F356
:101890005523B1F3951B550BBB27AA276217730776
:1018A000840738F09F5F5F4F220F331F441FAA1F2A
:1018B000A9F333D00E2E3AF0E0E830D091505040EA
:1018C000E695001CCAF729D0FE2F27D0660F771F98
:1018D000881FBB1F261737074807AB07B0E809F07A
:1018E000BB0B802DBF01FF2793585F4F2AF09E3F0F
:1018F000510568F08DC0D7C05F3FECF3983EDCF334
:10190000869577956795B795F7959F5FC9F7880F87
:10191000911D9695879597F90895E1E0660F771FD9
:10192000881FBB1F621773078407BA0720F0621B6A
:10193000730B840BBA0BEE1F88F7E095089598D0CF
:1019400088F09F5790F0B92F9927B751A0F0D1F0A8
:10195000660F771F881F991F1AF0BA95C9F712C032
:10196000B13081F09FD0B1E008959CC0672F782FEF
:101970008827B85F39F0B93FCCF38695779567959E
:10198000B395D9F73EF490958095709561957F4F0A
:101990008F4F9F4F0895E89409C097FB3EF49095B0
:1019A0008095709561957F4F8F4F9F4F9923A9F038
:1019B000F92F96E9BB279395F695879577956795C7
:1019C000B795F111F8CFFAF4BB0F11F460FF1BC00B
:1019D0006F5F7F4F8F4F9F4F16C0882311F096E99E
:1019E00011C0772321F09EE8872F762F05C066234C
:1019F00071F096E8862F70E060E02AF09A95660F05
:101A0000771F881FDAF7880F9695879597F90895BD
:101A100097F99F6780E870E060E008959FEF80ECA1
:101A2000089500240A941616170618060906089544
:101A300000240A9412161306140605060895092EAA
:101A40000394000C11F4882352F0BB0F40F4BF2B19
:101A500011F460FF04C06F5F7F4F8F4F9F4F089559
:101A600057FD9058440F551F59F05F3F71F047954F
:101A7000880F97FB991F61F09F3F79F08795089534
:101A8000121613061406551FF2CF4695F1DF08C053
:101A9000161617061806991FF1CF86957105610570
:101AA00008940895E894BB2766277727CB0197F918
:101AB00008950BD0C4CFB5DF28F0BADF18F0952316
:101AC00009F0A6CFABCF1124EECFCADFA0F3959FCC
:101AD000D1F3950F50E0551F629FF001729FBB2715
:101AE000F00DB11D639FAA27F00DB11DAA1F649FC1
:101AF0006627B00DA11D661F829F2227B00DA11D74
:101B0000621F739FB00DA11D621F839FA00D611DF9
:101B1000221F749F3327A00D611D231F849F600D1A
:101B2000211D822F762F6A2F11249F5750408AF053
:101B3000E1F088234AF0EE0FFF1FBB1F661F771FDF
:101B4000881F91505040A9F79E3F510570F060CF1B
:101B5000AACF5F3FECF3983EDCF3869577956795C7
:101B6000B795F795E7959F5FC1F7FE2B880F911DFD
:101B70009695879597F90895629FD001739FF0011C
:101B8000829FE00DF11D649FE00DF11D929FF00D0D
:101B9000839FF00D749FF00D659FF00D9927729F44
:101BA000B00DE11DF91F639FB00DE11DF91FBD01CF
:0A1BB000CF0111240895F894FFCF2F
:101BBA00031CFF02F0FF01F0FF00F0FF02005402D5
:101BCA00CF0103FCFF03E0FF031CFF03060006022C
:0E1BDA00060106010200000700000210FF00D5
:00000001FF
